{
  "_format": "hh-sol-artifact-1",
  "contractName": "TuringConsumer",
  "sourceName": "contracts/TuringConsumer.sol",
  "abi": [
    {
      "inputs": [
        {
          "internalType": "address",
          "name": "_helper",
          "type": "address"
        }
      ],
      "stateMutability": "nonpayable",
      "type": "constructor"
    },
    {
      "anonymous": false,
      "inputs": [
        {
          "indexed": true,
          "internalType": "address",
          "name": "previousOwner",
          "type": "address"
        },
        {
          "indexed": true,
          "internalType": "address",
          "name": "newOwner",
          "type": "address"
        }
      ],
      "name": "OwnershipTransferred",
      "type": "event"
    },
    {
      "anonymous": false,
      "inputs": [
        {
          "indexed": false,
          "internalType": "string",
          "name": "uri",
          "type": "string"
        },
        {
          "indexed": false,
          "internalType": "uint256",
          "name": "number",
          "type": "uint256"
        },
        {
          "indexed": false,
          "internalType": "bool",
          "name": "result",
          "type": "bool"
        },
        {
          "indexed": false,
          "internalType": "uint8",
          "name": "x",
          "type": "uint8"
        },
        {
          "indexed": false,
          "internalType": "uint8",
          "name": "z",
          "type": "uint8"
        }
      ],
      "name": "Result",
      "type": "event"
    },
    {
      "inputs": [],
      "name": "helperAddr",
      "outputs": [
        {
          "internalType": "address",
          "name": "",
          "type": "address"
        }
      ],
      "stateMutability": "view",
      "type": "function"
    },
    {
      "inputs": [],
      "name": "owner",
      "outputs": [
        {
          "internalType": "address",
          "name": "",
          "type": "address"
        }
      ],
      "stateMutability": "view",
      "type": "function"
    },
    {
      "inputs": [
        {
          "internalType": "uint8",
          "name": "",
          "type": "uint8"
        },
        {
          "internalType": "uint8",
          "name": "",
          "type": "uint8"
        }
      ],
      "name": "posOccupied",
      "outputs": [
        {
          "internalType": "bool",
          "name": "",
          "type": "bool"
        }
      ],
      "stateMutability": "view",
      "type": "function"
    },
    {
      "inputs": [],
      "name": "renounceOwnership",
      "outputs": [],
      "stateMutability": "nonpayable",
      "type": "function"
    },
    {
      "inputs": [
        {
          "internalType": "string",
          "name": "_uri",
          "type": "string"
        },
        {
          "internalType": "uint8[2]",
          "name": "coords",
          "type": "uint8[2]"
        }
      ],
      "name": "requestRandomWords",
      "outputs": [],
      "stateMutability": "payable",
      "type": "function"
    },
    {
      "inputs": [
        {
          "internalType": "address",
          "name": "newOwner",
          "type": "address"
        }
      ],
      "name": "transferOwnership",
      "outputs": [],
      "stateMutability": "nonpayable",
      "type": "function"
    },
    {
      "inputs": [
        {
          "internalType": "uint8",
          "name": "",
          "type": "uint8"
        },
        {
          "internalType": "uint8",
          "name": "",
          "type": "uint8"
        }
      ],
      "name": "uri",
      "outputs": [
        {
          "internalType": "string",
          "name": "",
          "type": "string"
        }
      ],
      "stateMutability": "view",
      "type": "function"
    }
  ],
  "bytecode": "0x60806040523480156200001157600080fd5b506040516200145838038062001458833981810160405281019062000037919062000238565b620000576200004b6200010260201b60201c565b6200010a60201b60201c565b80600160006101000a81548173ffffffffffffffffffffffffffffffffffffffff021916908373ffffffffffffffffffffffffffffffffffffffff160217905550600160009054906101000a900473ffffffffffffffffffffffffffffffffffffffff16600260006101000a81548173ffffffffffffffffffffffffffffffffffffffff021916908373ffffffffffffffffffffffffffffffffffffffff160217905550506200026a565b600033905090565b60008060009054906101000a900473ffffffffffffffffffffffffffffffffffffffff169050816000806101000a81548173ffffffffffffffffffffffffffffffffffffffff021916908373ffffffffffffffffffffffffffffffffffffffff1602179055508173ffffffffffffffffffffffffffffffffffffffff168173ffffffffffffffffffffffffffffffffffffffff167f8be0079c531659141344cd1fd0a4f28419497f9722a3daafe3b4186f6b6457e060405160405180910390a35050565b600080fd5b600073ffffffffffffffffffffffffffffffffffffffff82169050919050565b60006200020082620001d3565b9050919050565b6200021281620001f3565b81146200021e57600080fd5b50565b600081519050620002328162000207565b92915050565b600060208284031215620002515762000250620001ce565b5b6000620002618482850162000221565b91505092915050565b6111de806200027a6000396000f3fe6080604052600436106100705760003560e01c806371c316731161004e57806371c31673146100f45780637b164cc5146101105780638da5cb5b1461014d578063f2fde38b1461017857610070565b8063147ac8e1146100755780631569f615146100b2578063715018a6146100dd575b600080fd5b34801561008157600080fd5b5061009c600480360381019061009791906109cd565b6101a1565b6040516100a99190610aa6565b60405180910390f35b3480156100be57600080fd5b506100c761024e565b6040516100d49190610b09565b60405180910390f35b3480156100e957600080fd5b506100f2610274565b005b61010e60048036038101906101099190610d0f565b610288565b005b34801561011c57600080fd5b50610137600480360381019061013291906109cd565b6106a1565b6040516101449190610d86565b60405180910390f35b34801561015957600080fd5b506101626106d0565b60405161016f9190610b09565b60405180910390f35b34801561018457600080fd5b5061019f600480360381019061019a9190610dcd565b6106f9565b005b60046020528160005260406000206020528060005260406000206000915091505080546101cd90610e29565b80601f01602080910402602001604051908101604052809291908181526020018280546101f990610e29565b80156102465780601f1061021b57610100808354040283529160200191610246565b820191906000526020600020905b81548152906001019060200180831161022957829003601f168201915b505050505081565b600160009054906101000a900473ffffffffffffffffffffffffffffffffffffffff1681565b61027c61077d565b61028660006107fb565b565b655af3107a4000341461029a57600080fd5b60006102a46106d0565b73ffffffffffffffffffffffffffffffffffffffff16346040516102c790610e8c565b60006040518083038185875af1925050503d8060008114610304576040519150601f19603f3d011682016040523d82523d6000602084013e610309565b606091505b505090508061031757600080fd5b600360008360006002811061032f5761032e610ea1565b5b602002015160ff1660ff16815260200190815260200160002060008360016002811061035e5761035d610ea1565b5b602002015160ff1660ff16815260200190815260200160002060009054906101000a900460ff166104ed578260046000846000600281106103a2576103a1610ea1565b5b602002015160ff1660ff1681526020019081526020016000206000846001600281106103d1576103d0610ea1565b5b602002015160ff1660ff16815260200190815260200160002090805190602001906103fd9291906108dd565b506001600360008460006002811061041857610417610ea1565b5b602002015160ff1660ff16815260200190815260200160002060008460016002811061044757610446610ea1565b5b602002015160ff1660ff16815260200190815260200160002060006101000a81548160ff0219169083151502179055507f33c14004d25e297adfe04253f46b878a9d166b54716ebf59bde8527fcb731c978360006001856000600281106104b1576104b0610ea1565b5b6020020151866001600281106104ca576104c9610ea1565b5b60200201516040516104e0959493929190610f2e565b60405180910390a161069c565b6000600260009054906101000a900473ffffffffffffffffffffffffffffffffffffffff1673ffffffffffffffffffffffffffffffffffffffff166345ff812a6040518163ffffffff1660e01b8152600401602060405180830381600087803b15801561055957600080fd5b505af115801561056d573d6000803e3d6000fd5b505050506040513d601f19601f820116820180604052508101906105919190610fb4565b90506000806105aa6002846108bf90919063ffffffff16565b141561062a57600190508460046000866000600281106105cd576105cc610ea1565b5b602002015160ff1660ff1681526020019081526020016000206000866001600281106105fc576105fb610ea1565b5b602002015160ff1660ff16815260200190815260200160002090805190602001906106289291906108dd565b505b7f33c14004d25e297adfe04253f46b878a9d166b54716ebf59bde8527fcb731c978583838760006002811061066257610661610ea1565b5b60200201518860016002811061067b5761067a610ea1565b5b6020020151604051610691959493929190610ff0565b60405180910390a150505b505050565b60036020528160005260406000206020528060005260406000206000915091509054906101000a900460ff1681565b60008060009054906101000a900473ffffffffffffffffffffffffffffffffffffffff16905090565b61070161077d565b600073ffffffffffffffffffffffffffffffffffffffff168173ffffffffffffffffffffffffffffffffffffffff161415610771576040517f08c379a0000000000000000000000000000000000000000000000000000000008152600401610768906110bc565b60405180910390fd5b61077a816107fb565b50565b6107856108d5565b73ffffffffffffffffffffffffffffffffffffffff166107a36106d0565b73ffffffffffffffffffffffffffffffffffffffff16146107f9576040517f08c379a00000000000000000000000000000000000000000000000000000000081526004016107f090611128565b60405180910390fd5b565b60008060009054906101000a900473ffffffffffffffffffffffffffffffffffffffff169050816000806101000a81548173ffffffffffffffffffffffffffffffffffffffff021916908373ffffffffffffffffffffffffffffffffffffffff1602179055508173ffffffffffffffffffffffffffffffffffffffff168173ffffffffffffffffffffffffffffffffffffffff167f8be0079c531659141344cd1fd0a4f28419497f9722a3daafe3b4186f6b6457e060405160405180910390a35050565b600081836108cd9190611177565b905092915050565b600033905090565b8280546108e990610e29565b90600052602060002090601f01602090048101928261090b5760008555610952565b82601f1061092457805160ff1916838001178555610952565b82800160010185558215610952579182015b82811115610951578251825591602001919060010190610936565b5b50905061095f9190610963565b5090565b5b8082111561097c576000816000905550600101610964565b5090565b6000604051905090565b600080fd5b600080fd5b600060ff82169050919050565b6109aa81610994565b81146109b557600080fd5b50565b6000813590506109c7816109a1565b92915050565b600080604083850312156109e4576109e361098a565b5b60006109f2858286016109b8565b9250506020610a03858286016109b8565b9150509250929050565b600081519050919050565b600082825260208201905092915050565b60005b83811015610a47578082015181840152602081019050610a2c565b83811115610a56576000848401525b50505050565b6000601f19601f8301169050919050565b6000610a7882610a0d565b610a828185610a18565b9350610a92818560208601610a29565b610a9b81610a5c565b840191505092915050565b60006020820190508181036000830152610ac08184610a6d565b905092915050565b600073ffffffffffffffffffffffffffffffffffffffff82169050919050565b6000610af382610ac8565b9050919050565b610b0381610ae8565b82525050565b6000602082019050610b1e6000830184610afa565b92915050565b600080fd5b600080fd5b7f4e487b7100000000000000000000000000000000000000000000000000000000600052604160045260246000fd5b610b6682610a5c565b810181811067ffffffffffffffff82111715610b8557610b84610b2e565b5b80604052505050565b6000610b98610980565b9050610ba48282610b5d565b919050565b600067ffffffffffffffff821115610bc457610bc3610b2e565b5b610bcd82610a5c565b9050602081019050919050565b82818337600083830152505050565b6000610bfc610bf784610ba9565b610b8e565b905082815260208101848484011115610c1857610c17610b29565b5b610c23848285610bda565b509392505050565b600082601f830112610c4057610c3f610b24565b5b8135610c50848260208601610be9565b91505092915050565b600067ffffffffffffffff821115610c7457610c73610b2e565b5b602082029050919050565b600080fd5b6000610c97610c9284610c59565b610b8e565b90508060208402830185811115610cb157610cb0610c7f565b5b835b81811015610cda5780610cc688826109b8565b845260208401935050602081019050610cb3565b5050509392505050565b600082601f830112610cf957610cf8610b24565b5b6002610d06848285610c84565b91505092915050565b60008060608385031215610d2657610d2561098a565b5b600083013567ffffffffffffffff811115610d4457610d4361098f565b5b610d5085828601610c2b565b9250506020610d6185828601610ce4565b9150509250929050565b60008115159050919050565b610d8081610d6b565b82525050565b6000602082019050610d9b6000830184610d77565b92915050565b610daa81610ae8565b8114610db557600080fd5b50565b600081359050610dc781610da1565b92915050565b600060208284031215610de357610de261098a565b5b6000610df184828501610db8565b91505092915050565b7f4e487b7100000000000000000000000000000000000000000000000000000000600052602260045260246000fd5b60006002820490506001821680610e4157607f821691505b60208210811415610e5557610e54610dfa565b5b50919050565b600081905092915050565b50565b6000610e76600083610e5b565b9150610e8182610e66565b600082019050919050565b6000610e9782610e69565b9150819050919050565b7f4e487b7100000000000000000000000000000000000000000000000000000000600052603260045260246000fd5b6000819050919050565b6000819050919050565b6000819050919050565b6000610f09610f04610eff84610ed0565b610ee4565b610eda565b9050919050565b610f1981610eee565b82525050565b610f2881610994565b82525050565b600060a0820190508181036000830152610f488188610a6d565b9050610f576020830187610f10565b610f646040830186610d77565b610f716060830185610f1f565b610f7e6080830184610f1f565b9695505050505050565b610f9181610eda565b8114610f9c57600080fd5b50565b600081519050610fae81610f88565b92915050565b600060208284031215610fca57610fc961098a565b5b6000610fd884828501610f9f565b91505092915050565b610fea81610eda565b82525050565b600060a082019050818103600083015261100a8188610a6d565b90506110196020830187610fe1565b6110266040830186610d77565b6110336060830185610f1f565b6110406080830184610f1f565b9695505050505050565b7f4f776e61626c653a206e6577206f776e657220697320746865207a65726f206160008201527f6464726573730000000000000000000000000000000000000000000000000000602082015250565b60006110a6602683610a18565b91506110b18261104a565b604082019050919050565b600060208201905081810360008301526110d581611099565b9050919050565b7f4f776e61626c653a2063616c6c6572206973206e6f7420746865206f776e6572600082015250565b6000611112602083610a18565b915061111d826110dc565b602082019050919050565b6000602082019050818103600083015261114181611105565b9050919050565b7f4e487b7100000000000000000000000000000000000000000000000000000000600052601260045260246000fd5b600061118282610eda565b915061118d83610eda565b92508261119d5761119c611148565b5b82820690509291505056fea26469706673582212204b3b366c429625eeb2ac24e175ab9928071a1321b022ff6979863cc535df18e464736f6c63430008090033",
  "linkReferences": {},
  "deployedLinkReferences": {}
}